{
  "contractName": "DieselPrice",
  "abi": [
    {
      "constant": true,
      "inputs": [],
      "name": "dieselPriceUSD",
      "outputs": [
        {
          "name": "",
          "type": "uint256"
        }
      ],
      "payable": false,
      "stateMutability": "view",
      "type": "function"
    },
    {
      "inputs": [],
      "payable": false,
      "stateMutability": "nonpayable",
      "type": "constructor"
    },
    {
      "anonymous": false,
      "inputs": [
        {
          "indexed": false,
          "name": "price",
          "type": "string"
        }
      ],
      "name": "LogNewDieselPrice",
      "type": "event"
    },
    {
      "anonymous": false,
      "inputs": [
        {
          "indexed": false,
          "name": "description",
          "type": "string"
        }
      ],
      "name": "LogNewOraclizeQuery",
      "type": "event"
    },
    {
      "constant": false,
      "inputs": [
        {
          "name": "_myid",
          "type": "bytes32"
        },
        {
          "name": "_result",
          "type": "string"
        }
      ],
      "name": "__callback",
      "outputs": [],
      "payable": false,
      "stateMutability": "nonpayable",
      "type": "function"
    },
    {
      "constant": false,
      "inputs": [
        {
          "name": "_myid",
          "type": "bytes32"
        },
        {
          "name": "_result",
          "type": "string"
        },
        {
          "name": "_proof",
          "type": "bytes"
        }
      ],
      "name": "__callback",
      "outputs": [],
      "payable": false,
      "stateMutability": "nonpayable",
      "type": "function"
    },
    {
      "constant": false,
      "inputs": [],
      "name": "update",
      "outputs": [],
      "payable": true,
      "stateMutability": "payable",
      "type": "function"
    }
  ],
  "bytecode": "0x60806040523480156200001157600080fd5b506200002b62000031640100000000026401000000009004565b62000ec5565b7f621c2856e3b87f81235f8ac8a22bbb40a0142961960710d00b2b6c380902b57e6040518080602001828103825260368152602001807f4f7261636c697a65207175657279207761732073656e742c207374616e64696e81526020017f6720627920666f722074686520616e737765722e2e2e0000000000000000000081525060400191505060405180910390a1620001916040805190810160405280600381526020017f55524c0000000000000000000000000000000000000000000000000000000000815250608060405190810160405280604581526020017f786d6c2868747470733a2f2f7777772e6675656c65636f6e6f6d792e676f762f81526020017f77732f726573742f6675656c707269636573292e6675656c5072696365732e6481526020017f696573656c00000000000000000000000000000000000000000000000000000081525062000194640100000000026401000000009004565b50565b60008073ffffffffffffffffffffffffffffffffffffffff16600160009054906101000a900473ffffffffffffffffffffffffffffffffffffffff1673ffffffffffffffffffffffffffffffffffffffff1614806200022e575060006200022c600160009054906101000a900473ffffffffffffffffffffffffffffffffffffffff1662000789640100000000026401000000009004565b145b1562000251576200024f600062000794640100000000026401000000009004565b505b600160009054906101000a900473ffffffffffffffffffffffffffffffffffffffff1673ffffffffffffffffffffffffffffffffffffffff166338cc48316040518163ffffffff167c0100000000000000000000000000000000000000000000000000000000028152600401602060405180830381600087803b158015620002d857600080fd5b505af1158015620002ed573d6000803e3d6000fd5b505050506040513d60208110156200030457600080fd5b810190808051906020019092919050505073ffffffffffffffffffffffffffffffffffffffff166000809054906101000a900473ffffffffffffffffffffffffffffffffffffffff1673ffffffffffffffffffffffffffffffffffffffff161415156200046f57600160009054906101000a900473ffffffffffffffffffffffffffffffffffffffff1673ffffffffffffffffffffffffffffffffffffffff166338cc48316040518163ffffffff167c0100000000000000000000000000000000000000000000000000000000028152600401602060405180830381600087803b158015620003f257600080fd5b505af115801562000407573d6000803e3d6000fd5b505050506040513d60208110156200041e57600080fd5b81019080805190602001909291905050506000806101000a81548173ffffffffffffffffffffffffffffffffffffffff021916908373ffffffffffffffffffffffffffffffffffffffff1602179055505b60008060009054906101000a900473ffffffffffffffffffffffffffffffffffffffff1673ffffffffffffffffffffffffffffffffffffffff1663524f3889856040518263ffffffff167c01000000000000000000000000000000000000000000000000000000000281526004018080602001828103825283818151815260200191508051906020019080838360005b838110156200051c578082015181840152602081019050620004ff565b50505050905090810190601f1680156200054a5780820380516001836020036101000a031916815260200191505b5092505050602060405180830381600087803b1580156200056a57600080fd5b505af11580156200057f573d6000803e3d6000fd5b505050506040513d60208110156200059657600080fd5b8101908080519060200190929190505050905062030d403a02670de0b6b3a764000001811115620005cf57600060010291505062000783565b6000809054906101000a900473ffffffffffffffffffffffffffffffffffffffff1673ffffffffffffffffffffffffffffffffffffffff1663adf59f9982600087876040518563ffffffff167c0100000000000000000000000000000000000000000000000000000000028152600401808481526020018060200180602001838103835285818151815260200191508051906020019080838360005b83811015620006885780820151818401526020810190506200066b565b50505050905090810190601f168015620006b65780820380516001836020036101000a031916815260200191505b50838103825284818151815260200191508051906020019080838360005b83811015620006f1578082015181840152602081019050620006d4565b50505050905090810190601f1680156200071f5780820380516001836020036101000a031916815260200191505b50955050505050506020604051808303818588803b1580156200074157600080fd5b505af115801562000756573d6000803e3d6000fd5b50505050506040513d60208110156200076e57600080fd5b81019080805190602001909291905050509150505b92915050565b6000813b9050919050565b6000620007af620007b6640100000000026401000000009004565b9050919050565b600080620007e7731d3b2638a7cc9f2cb3d298a3da7a90b67e5506ed62000789640100000000026401000000009004565b11156200089c57731d3b2638a7cc9f2cb3d298a3da7a90b67e5506ed600160006101000a81548173ffffffffffffffffffffffffffffffffffffffff021916908373ffffffffffffffffffffffffffffffffffffffff160217905550620008926040805190810160405280600b81526020017f6574685f6d61696e6e657400000000000000000000000000000000000000000081525062000dfa640100000000026401000000009004565b6001905062000df7565b6000620008cc73c03a2615d5efaf5f49f60b7bb6583eaec212fdf162000789640100000000026401000000009004565b1115620009815773c03a2615d5efaf5f49f60b7bb6583eaec212fdf1600160006101000a81548173ffffffffffffffffffffffffffffffffffffffff021916908373ffffffffffffffffffffffffffffffffffffffff160217905550620009776040805190810160405280600c81526020017f6574685f726f707374656e33000000000000000000000000000000000000000081525062000dfa640100000000026401000000009004565b6001905062000df7565b6000620009b173b7a07bcf2ba2f2703b24c0691b5278999c59ac7e62000789640100000000026401000000009004565b111562000a665773b7a07bcf2ba2f2703b24c0691b5278999c59ac7e600160006101000a81548173ffffffffffffffffffffffffffffffffffffffff021916908373ffffffffffffffffffffffffffffffffffffffff16021790555062000a5c6040805190810160405280600981526020017f6574685f6b6f76616e000000000000000000000000000000000000000000000081525062000dfa640100000000026401000000009004565b6001905062000df7565b600062000a9673146500cfd35b22e4a392fe0adc06de1a1368ed4862000789640100000000026401000000009004565b111562000b4b5773146500cfd35b22e4a392fe0adc06de1a1368ed48600160006101000a81548173ffffffffffffffffffffffffffffffffffffffff021916908373ffffffffffffffffffffffffffffffffffffffff16021790555062000b416040805190810160405280600b81526020017f6574685f72696e6b65627900000000000000000000000000000000000000000081525062000dfa640100000000026401000000009004565b6001905062000df7565b600062000b7b73a2998efd205fb9d4b4963afb70778d6354ad3a4162000789640100000000026401000000009004565b111562000c305773a2998efd205fb9d4b4963afb70778d6354ad3a41600160006101000a81548173ffffffffffffffffffffffffffffffffffffffff021916908373ffffffffffffffffffffffffffffffffffffffff16021790555062000c266040805190810160405280600a81526020017f6574685f676f65726c690000000000000000000000000000000000000000000081525062000dfa640100000000026401000000009004565b6001905062000df7565b600062000c60736f485c8bf6fc43ea212e93bbf8ce046c7f1cb47562000789640100000000026401000000009004565b111562000cc657736f485c8bf6fc43ea212e93bbf8ce046c7f1cb475600160006101000a81548173ffffffffffffffffffffffffffffffffffffffff021916908373ffffffffffffffffffffffffffffffffffffffff1602179055506001905062000df7565b600062000cf67320e12a1f859b3feae5fb2a0a32c18f5a65555bbf62000789640100000000026401000000009004565b111562000d5c577320e12a1f859b3feae5fb2a0a32c18f5a65555bbf600160006101000a81548173ffffffffffffffffffffffffffffffffffffffff021916908373ffffffffffffffffffffffffffffffffffffffff1602179055506001905062000df7565b600062000d8c7351efaf4c8b3c9afbd5ab9f4bbc82784ab6ef8faa62000789640100000000026401000000009004565b111562000df2577351efaf4c8b3c9afbd5ab9f4bbc82784ab6ef8faa600160006101000a81548173ffffffffffffffffffffffffffffffffffffffff021916908373ffffffffffffffffffffffffffffffffffffffff1602179055506001905062000df7565b600090505b90565b806002908051906020019062000e1292919062000e16565b5050565b828054600181600116156101000203166002900490600052602060002090601f016020900481019282601f1062000e5957805160ff191683800117855562000e8a565b8280016001018555821562000e8a579182015b8281111562000e8957825182559160200191906001019062000e6c565b5b50905062000e99919062000e9d565b5090565b62000ec291905b8082111562000ebe57600081600090555060010162000ea4565b5090565b90565b6117648062000ed56000396000f3fe60806040526004361061005c576000357c01000000000000000000000000000000000000000000000000000000009004806327dc297e1461006157806338bbfa50146101335780633e0ae5881461029c578063a2e62045146102c7575b600080fd5b34801561006d57600080fd5b506101316004803603604081101561008457600080fd5b8101908080359060200190929190803590602001906401000000008111156100ab57600080fd5b8201836020820111156100bd57600080fd5b803590602001918460018302840111640100000000831117156100df57600080fd5b91908080601f016020809104026020016040519081016040528093929190818152602001838380828437600081840152601f19601f8201169050808301925050505050505091929192905050506102d1565b005b34801561013f57600080fd5b5061029a6004803603606081101561015657600080fd5b81019080803590602001909291908035906020019064010000000081111561017d57600080fd5b82018360208201111561018f57600080fd5b803590602001918460018302840111640100000000831117156101b157600080fd5b91908080601f016020809104026020016040519081016040528093929190818152602001838380828437600081840152601f19601f8201169050808301925050505050505091929192908035906020019064010000000081111561021457600080fd5b82018360208201111561022657600080fd5b8035906020019184600183028401116401000000008311171561024857600080fd5b91908080601f016020809104026020016040519081016040528093929190818152602001838380828437600081840152601f19601f8201169050808301925050505050505091929192905050506103c3565b005b3480156102a857600080fd5b506102b16103e7565b6040518082815260200191505060405180910390f35b6102cf6103ed565b005b6102d961053f565b73ffffffffffffffffffffffffffffffffffffffff163373ffffffffffffffffffffffffffffffffffffffff1614151561031257600080fd5b7fd6895258709992fce160291769b3d3b2abe843f1e1529bed11f0dbd1f8159bb0816040518080602001828103825283818151815260200191508051906020019080838360005b83811015610374578082015181840152602081019050610359565b50505050905090810190601f1680156103a15780820380516001836020036101000a031916815260200191505b509250505060405180910390a16103b98160026108b2565b6005819055505050565b60006001026003600080600102815260200190815260200160002081905550505050565b60055481565b7f621c2856e3b87f81235f8ac8a22bbb40a0142961960710d00b2b6c380902b57e6040518080602001828103825260368152602001807f4f7261636c697a65207175657279207761732073656e742c207374616e64696e81526020017f6720627920666f722074686520616e737765722e2e2e0000000000000000000081525060400191505060405180910390a161053c6040805190810160405280600381526020017f55524c0000000000000000000000000000000000000000000000000000000000815250608060405190810160405280604581526020017f786d6c2868747470733a2f2f7777772e6675656c65636f6e6f6d792e676f762f81526020017f77732f726573742f6675656c707269636573292e6675656c5072696365732e6481526020017f696573656c000000000000000000000000000000000000000000000000000000815250610b4d565b50565b60008073ffffffffffffffffffffffffffffffffffffffff16600160009054906101000a900473ffffffffffffffffffffffffffffffffffffffff1673ffffffffffffffffffffffffffffffffffffffff1614806105c7575060006105c5600160009054906101000a900473ffffffffffffffffffffffffffffffffffffffff16611106565b145b156105d8576105d66000611111565b505b600160009054906101000a900473ffffffffffffffffffffffffffffffffffffffff1673ffffffffffffffffffffffffffffffffffffffff166338cc48316040518163ffffffff167c0100000000000000000000000000000000000000000000000000000000028152600401602060405180830381600087803b15801561065e57600080fd5b505af1158015610672573d6000803e3d6000fd5b505050506040513d602081101561068857600080fd5b810190808051906020019092919050505073ffffffffffffffffffffffffffffffffffffffff166000809054906101000a900473ffffffffffffffffffffffffffffffffffffffff1673ffffffffffffffffffffffffffffffffffffffff161415156107ef57600160009054906101000a900473ffffffffffffffffffffffffffffffffffffffff1673ffffffffffffffffffffffffffffffffffffffff166338cc48316040518163ffffffff167c0100000000000000000000000000000000000000000000000000000000028152600401602060405180830381600087803b15801561077457600080fd5b505af1158015610788573d6000803e3d6000fd5b505050506040513d602081101561079e57600080fd5b81019080805190602001909291905050506000806101000a81548173ffffffffffffffffffffffffffffffffffffffff021916908373ffffffffffffffffffffffffffffffffffffffff1602179055505b6000809054906101000a900473ffffffffffffffffffffffffffffffffffffffff1673ffffffffffffffffffffffffffffffffffffffff1663c281d19e6040518163ffffffff167c010000000000000000000000000000000000000000000000000000000002815260040160206040518083038186803b15801561087257600080fd5b505afa158015610886573d6000803e3d6000fd5b505050506040513d602081101561089c57600080fd5b8101908080519060200190929190505050905090565b600060608390506000809050600080905060008090505b8351811015610b2e57603084828151811015156108e257fe5b9060200101517f010000000000000000000000000000000000000000000000000000000000000090047f0100000000000000000000000000000000000000000000000000000000000000027f0100000000000000000000000000000000000000000000000000000000000000900460ff16101580156109e057506039848281518110151561096c57fe5b9060200101517f010000000000000000000000000000000000000000000000000000000000000090047f0100000000000000000000000000000000000000000000000000000000000000027f0100000000000000000000000000000000000000000000000000000000000000900460ff1611155b15610a94578115610a035760008614156109f957610b2e565b8580600190039650505b600a8302925060308482815181101515610a1957fe5b9060200101517f010000000000000000000000000000000000000000000000000000000000000090047f0100000000000000000000000000000000000000000000000000000000000000027f0100000000000000000000000000000000000000000000000000000000000000900460ff160383019250610b21565b602e8482815181101515610aa457fe5b9060200101517f010000000000000000000000000000000000000000000000000000000000000090047f0100000000000000000000000000000000000000000000000000000000000000027f0100000000000000000000000000000000000000000000000000000000000000900460ff161415610b2057600191505b5b80806001019150506108c9565b506000851115610b415784600a0a820291505b81935050505092915050565b60008073ffffffffffffffffffffffffffffffffffffffff16600160009054906101000a900473ffffffffffffffffffffffffffffffffffffffff1673ffffffffffffffffffffffffffffffffffffffff161480610bd557506000610bd3600160009054906101000a900473ffffffffffffffffffffffffffffffffffffffff16611106565b145b15610be657610be46000611111565b505b600160009054906101000a900473ffffffffffffffffffffffffffffffffffffffff1673ffffffffffffffffffffffffffffffffffffffff166338cc48316040518163ffffffff167c0100000000000000000000000000000000000000000000000000000000028152600401602060405180830381600087803b158015610c6c57600080fd5b505af1158015610c80573d6000803e3d6000fd5b505050506040513d6020811015610c9657600080fd5b810190808051906020019092919050505073ffffffffffffffffffffffffffffffffffffffff166000809054906101000a900473ffffffffffffffffffffffffffffffffffffffff1673ffffffffffffffffffffffffffffffffffffffff16141515610dfd57600160009054906101000a900473ffffffffffffffffffffffffffffffffffffffff1673ffffffffffffffffffffffffffffffffffffffff166338cc48316040518163ffffffff167c0100000000000000000000000000000000000000000000000000000000028152600401602060405180830381600087803b158015610d8257600080fd5b505af1158015610d96573d6000803e3d6000fd5b505050506040513d6020811015610dac57600080fd5b81019080805190602001909291905050506000806101000a81548173ffffffffffffffffffffffffffffffffffffffff021916908373ffffffffffffffffffffffffffffffffffffffff1602179055505b60008060009054906101000a900473ffffffffffffffffffffffffffffffffffffffff1673ffffffffffffffffffffffffffffffffffffffff1663524f3889856040518263ffffffff167c01000000000000000000000000000000000000000000000000000000000281526004018080602001828103825283818151815260200191508051906020019080838360005b83811015610ea8578082015181840152602081019050610e8d565b50505050905090810190601f168015610ed55780820380516001836020036101000a031916815260200191505b5092505050602060405180830381600087803b158015610ef457600080fd5b505af1158015610f08573d6000803e3d6000fd5b505050506040513d6020811015610f1e57600080fd5b8101908080519060200190929190505050905062030d403a02670de0b6b3a764000001811115610f55576000600102915050611100565b6000809054906101000a900473ffffffffffffffffffffffffffffffffffffffff1673ffffffffffffffffffffffffffffffffffffffff1663adf59f9982600087876040518563ffffffff167c0100000000000000000000000000000000000000000000000000000000028152600401808481526020018060200180602001838103835285818151815260200191508051906020019080838360005b8381101561100c578082015181840152602081019050610ff1565b50505050905090810190601f1680156110395780820380516001836020036101000a031916815260200191505b50838103825284818151815260200191508051906020019080838360005b83811015611072578082015181840152602081019050611057565b50505050905090810190601f16801561109f5780820380516001836020036101000a031916815260200191505b50955050505050506020604051808303818588803b1580156110c057600080fd5b505af11580156110d4573d6000803e3d6000fd5b50505050506040513d60208110156110eb57600080fd5b81019080805190602001909291905050509150505b92915050565b6000813b9050919050565b600061111b611122565b9050919050565b600080611142731d3b2638a7cc9f2cb3d298a3da7a90b67e5506ed611106565b11156111e457731d3b2638a7cc9f2cb3d298a3da7a90b67e5506ed600160006101000a81548173ffffffffffffffffffffffffffffffffffffffff021916908373ffffffffffffffffffffffffffffffffffffffff1602179055506111db6040805190810160405280600b81526020017f6574685f6d61696e6e6574000000000000000000000000000000000000000000815250611679565b60019050611676565b600061120373c03a2615d5efaf5f49f60b7bb6583eaec212fdf1611106565b11156112a55773c03a2615d5efaf5f49f60b7bb6583eaec212fdf1600160006101000a81548173ffffffffffffffffffffffffffffffffffffffff021916908373ffffffffffffffffffffffffffffffffffffffff16021790555061129c6040805190810160405280600c81526020017f6574685f726f707374656e330000000000000000000000000000000000000000815250611679565b60019050611676565b60006112c473b7a07bcf2ba2f2703b24c0691b5278999c59ac7e611106565b11156113665773b7a07bcf2ba2f2703b24c0691b5278999c59ac7e600160006101000a81548173ffffffffffffffffffffffffffffffffffffffff021916908373ffffffffffffffffffffffffffffffffffffffff16021790555061135d6040805190810160405280600981526020017f6574685f6b6f76616e0000000000000000000000000000000000000000000000815250611679565b60019050611676565b600061138573146500cfd35b22e4a392fe0adc06de1a1368ed48611106565b11156114275773146500cfd35b22e4a392fe0adc06de1a1368ed48600160006101000a81548173ffffffffffffffffffffffffffffffffffffffff021916908373ffffffffffffffffffffffffffffffffffffffff16021790555061141e6040805190810160405280600b81526020017f6574685f72696e6b656279000000000000000000000000000000000000000000815250611679565b60019050611676565b600061144673a2998efd205fb9d4b4963afb70778d6354ad3a41611106565b11156114e85773a2998efd205fb9d4b4963afb70778d6354ad3a41600160006101000a81548173ffffffffffffffffffffffffffffffffffffffff021916908373ffffffffffffffffffffffffffffffffffffffff1602179055506114df6040805190810160405280600a81526020017f6574685f676f65726c6900000000000000000000000000000000000000000000815250611679565b60019050611676565b6000611507736f485c8bf6fc43ea212e93bbf8ce046c7f1cb475611106565b111561156b57736f485c8bf6fc43ea212e93bbf8ce046c7f1cb475600160006101000a81548173ffffffffffffffffffffffffffffffffffffffff021916908373ffffffffffffffffffffffffffffffffffffffff16021790555060019050611676565b600061158a7320e12a1f859b3feae5fb2a0a32c18f5a65555bbf611106565b11156115ee577320e12a1f859b3feae5fb2a0a32c18f5a65555bbf600160006101000a81548173ffffffffffffffffffffffffffffffffffffffff021916908373ffffffffffffffffffffffffffffffffffffffff16021790555060019050611676565b600061160d7351efaf4c8b3c9afbd5ab9f4bbc82784ab6ef8faa611106565b1115611671577351efaf4c8b3c9afbd5ab9f4bbc82784ab6ef8faa600160006101000a81548173ffffffffffffffffffffffffffffffffffffffff021916908373ffffffffffffffffffffffffffffffffffffffff16021790555060019050611676565b600090505b90565b806002908051906020019061168f929190611693565b5050565b828054600181600116156101000203166002900490600052602060002090601f016020900481019282601f106116d457805160ff1916838001178555611702565b82800160010185558215611702579182015b828111156117015782518255916020019190600101906116e6565b5b50905061170f9190611713565b5090565b61173591905b80821115611731576000816000905550600101611719565b5090565b9056fea165627a7a723058203f2693c099b862aeb2ab4597cb6a06a2d60b4f28599772fd32b5d5cb02f298f10029",
  "source": "pragma solidity >= 0.5.0 < 0.6.0;\n\nimport \"./oraclize/oraclizeAPI_0.5.sol\";\n\n\ncontract DieselPrice is usingOraclize {\n\n    uint public dieselPriceUSD;\n\n    event LogNewDieselPrice(string price);\n    event LogNewOraclizeQuery(string description);\n\n    constructor()\n        public\n    {\n        update(); // First check at contract creation...\n    }\n\n    function __callback(\n        bytes32 _myid,\n        string memory _result\n    )\n        public\n    {\n        require(msg.sender == oraclize_cbAddress());\n        emit LogNewDieselPrice(_result);\n        dieselPriceUSD = parseInt(_result, 2); // Let's save it as cents...\n        // Now do something with the USD Diesel price...\n    }\n\n    function update()\n        public\n        payable\n    {\n        emit LogNewOraclizeQuery(\"Oraclize query was sent, standing by for the answer...\");\n        oraclize_query(\"URL\", \"xml(https://www.fueleconomy.gov/ws/rest/fuelprices).fuelPrices.diesel\");\n    }\n}",
  "sourcePath": "/Users/Alle588/Desktop/PROJECTS/eth-diesel-price/src/blockchain/contracts/DieselPrice.sol",
  "compiler": {
    "name": "solc",
    "version": "0.5.1+commit.c8a2cb62.Emscripten.clang"
  },
  "schemaVersion": "3.0.11",
  "updatedAt": "2019-06-22T21:31:05.491Z",
  "devdoc": {
    "methods": {}
  },
  "userdoc": {
    "methods": {}
  }
}